:1000000048C000006DC000006BC0000069C0000067
:1000100067C0000065C0000063C0000061C0000050
:100020005FC000000C94440B5BC0000059C000008E
:1000300057C00000F9C6000053C0000051C00000C6
:100040004FC000004DC000000C94CB0A0C94030B71
:1000500047C0000045C0000043C0000041C0000090
:100060003FC000003DC0000085048B048E04910455
:10007000940497049A049D04A004A304A604A9046C
:10008000000000000000001F1F1F1F1F1F1FD30BB9
:10009000D40B11241FBECFEFD8E0DEBFCDBF11E0DF
:1000A000A0E0B1E0ECE9F6E202C005900D92A439BF
:1000B000B107D9F715E0A4E9B1E001C01D92AB3753
:1000C000B107E1F710E0C0E9D0E004C02297FE01DB
:1000D0000E94F711CE38D107C9F7D6D20C9442133B
:1000E0008FCFCF93DF93C0E8D0E0CE0160E00E94D5
:1000F000B108CE01019661E00E94B108CE010296DE
:1001000062E00E94B108CE01039663E00E94B1084C
:10011000CE01049664E00E94B108CE01059665E028
:100120000E94B108CE01069666E00E94B108E0D7B1
:10013000DF91CF910895AAE0B0E0E1EAF0E00C94FD
:10014000C711082F192F95E0B92E7E010894E11CE4
:10015000F11C85E6C82ED12CD701E3E7F1E08AE057
:1001600001900D928150E1F7F801819191918F01F9
:10017000B6010E946D116E0D7F1DFB018081CBD7F2
:10018000BA9451F72A96E9E00C94E311CF93DF93E8
:10019000CCEEDFEFC832D10528F088E290E068EDC0
:1001A0007FEF04C088ED9FEF68E270E00E94750960
:1001B00081E00E94DE0B84E190E00E947E0B21969C
:1001C000CC33D10539F780E090E060E070E00E9428
:1001D0007509DF91CF910895A4EFB1E0E2EFF0E06F
:1001E0000C94C0113C012B014A015901C90160E086
:1001F00071E00E943913009739F47AD7C80189D782
:1002000084EF91E00E947E0BC50165E071E00E94E1
:100210003913009729F4C80105D677D28823E9F766
:10022000C5016BE071E00E943913009731F486E15B
:1002300091E06FD783E780937605C50162E271E0B4
:100240000E943913009731F48BE291E062D78CE67B
:1002500080937605C50165E371E00E94391300972C
:1002600031F48FE391E055D782E7809376055E0104
:100270000894A11CB11CC501B3010E942E13C50135
:100280006AE471E00E942E13C501B2010E942E1390
:10029000C5016AE471E00E942E13C501B4010E94F9
:1002A0002E13C5016AE471E00E942E13C5016CE4AF
:1002B00071E00E942E13C5016AE471E00E942E13C2
:1002C000C501B8010E942E13C5016AE471E00E94C5
:1002D0002E13C501B7010E942E13C5016AE471E017
:1002E0000E942E13C501B6010E942E13C50160E5C0
:1002F00071E00E942E13F50101900020E9F7BF0183
:10030000615070406A197B09C5010E94C90A84EFD7
:1003100091E0F5019C01119221503040E1F7CC5061
:10032000DE4FE0E10C94DC112F923F924F925F92EE
:100330006F927F928F929F92BF92CF92DF92EF92B5
:10034000FF920F931F93CF93DF938AE0882E84E070
:10035000982E00EC602E04E0702E16E1412E12E083
:10036000512EBCE32B2EB4E03B2EC2EFD4E0A2E32F
:10037000BA2EDDC0E0917101F09172018091970178
:1003800090919801E80FF91FB0E0A056BB4F8C91F7
:1003900080838091970190919801019690939801A4
:1003A00080939701E0919401F0E0E056FB4F2081AB
:1003B0002B3309F059C0E0917101F0917201E80FFF
:1003C000F91F3197108280919501909196010196C5
:1003D0009093960180939501109298011092970145
:1003E0008330910549F1843091054CF481309105B9
:1003F000A9F082309105CCF4009759F031C08530D6
:10040000910521F185309105E4F08630910541F5A3
:1004100022C0D0937201C093710126C08EE694E091
:1004200090937201809371011FC0E4E4F5E0F093B2
:100430007201E093710118C0909272018092710173
:1004400013C050927201409271010EC070927201FD
:100450006092710109C0309272012092710104C052
:100460001092960110929501E0919401F0E0E0560F
:10047000FB4F80818E3209F050C0E0917101F09104
:1004800072018091970190919801E80FF91F3197BF
:1004900010821092960110929501D0937201C09330
:1004A00071011092980110929701CE016EE674E0EE
:1004B00044E455E02AE034E006E112E0F0ECEF2EEF
:1004C000F4E0FF2EECE3CE2EE4E0DE2E85DEFE012E
:1004D0008B2D11928A95E9F7EEE6F4E08B2D1192BF
:1004E0008A95E9F7E4E4F5E08B2D11928A95E9F716
:1004F000F4018B2D11928A95E9F7F20184EF91E0D6
:1005000011920197E9F7F3018B2D11928A95E9F782
:10051000F1018B2D11928A95E9F7809194018F3129
:1005200019F41092940103C08F5F8093940147D710
:10053000A09194018A1709F01DCFDF91CF911F91EF
:100540000F91FF90EF90DF90CF90BF909F908F9092
:100550007F906F905F904F903F902F900895E4CEE2
:10056000FC018081918121E08D3292075CF0208531
:10057000318541E02D3234072CF080E280937605FE
:1005800083E708952481358141E02D32340704F555
:100590002281338141E02D323407E4F42681378112
:1005A00041E02D323407C4F421E0813992072CF068
:1005B0008CE6809376058CE408958085918541E0F2
:1005C000813994075CF082E78093760582E508958F
:1005D00087E608958CE6089582E7089583E70895F5
:1005E000CF93DF93EC0180917605803209F449C006
:1005F000833771F5CE01B4DF873679F0883634F46D
:100600008C34F1F0823509F03CC015C0823771F0AE
:100610008337C9F08C36A9F503C089E190E002C0A8
:100620008AE090E069E170E060D62BC089E190E05B
:100630006AE070E0F9CF89E190E067EE7FEFF4CFF8
:1006400087EE9FEFEFCF80E090E060E070E0ECCFCE
:100650008C3629F487EE9FEF69E170E046D68091F1
:100660007605823729F489E190E067EE7FEF3DD689
:100670008C819D8123E0813292071CF083E7809377
:100680007605DF91CF910895AAE0B0E0EAE4F3E0C7
:100690000C94CA1182E591E03CD584EF91E00E9470
:1006A0007E0B60E875E280E090E0D8D680EA94E0C6
:1006B00060E26BD61DD580E691E02BD580E2809379
:1006C0007605EE24FF248E010F5F1F4F3CD7E11407
:1006D000F10439F029DEC80161E00E94D70BC8019E
:1006E0007FDF80E104D6882389F380E14CD680ED5A
:1006F00097E00E94110CF5DC49DDFAD488E691E020
:1007000008D591E0E92EF12CE1CF80918801882372
:1007100039F020E08091B7019091B801892B09F060
:1007200021E0822F0895A0E0B0E0E9E9F3E00C9425
:10073000C611FC015B01C42E8091B6018823C9F467
:1007400081E08093B60110926F0083E28093800075
:1007500081E1809381001092820080E197E2909382
:1007600089008093880010928B0010928A00229A50
:10077000789410928801F7FD03C0DD24D39403C060
:10078000FF772AE0D22E80918100082F10E0087FA9
:10079000107088ECD89EC00111248E179F07C0F4FA
:1007A000EF0187E2E131F80710F0C0E1D7E2BE01C6
:1007B0007695679580E090E06058794687469F4F30
:1007C0009E0140E050E00E9481117901016024C047
:1007D00088E2D89E802D1124C82FD0E0CE17DF07E5
:1007E00008F4EF01BE01769567959E0140E050E068
:1007F0008AE0D81639F480E090E0605E734481446A
:100800009F4F06C080E090E060537D4E8C4E9F4F1E
:100810000E948111790102608AE0D81639F4CE0174
:1008200005966AE070E00E946D11EB0183E0C83E1E
:10083000D80711F4B5010FC0BE0180E090E095012A
:1008400040E050E00E94421128EE33E040E050E0EA
:100850000E94A311B90110926F0000938100F092E1
:100860008900E0928800E0918800F0918900AC2D29
:10087000A03108F0AFE080E190E08A1B910902C04E
:10088000F695E7958A95E2F7F0938B00E0938A005E
:1008900070939E0160939D0186B38FEF86BB81E0CC
:1008A00080936F00CDB7DEB7EAE00C94E211CF93EE
:1008B000DF93EB018F3F11F0442329F488EE93E09E
:1008C000BE0140E067C0813110F420E005C0282F50
:1008D0002051203608F02FE5822F6CE00E94611134
:1008E000382F682F70E084EF9FEF689FF001699FB9
:1008F000F00D789FF00D1124E20FF11DEC30F105A1
:1009000038F4EC5CFF4F0C94F5118CE991E023C0B6
:1009100080E090E020C085EB91E01DC08FEC91E07D
:100920001AC08AEE91E017C087E092E014C086E218
:1009300092E011C087E492E00EC089E692E00BC01D
:100940008EE892E008C085EB92E005C08EED92E063
:1009500002C08AE093E0373071F002C0880F991F1F
:100960006A95E2F7323020F005966AE070E00BC03D
:10097000805090480BC036E0880F991F3A95E1F7F8
:10098000029665E070E00E946D11CB01403108F0E5
:100990004FE0BE01C8DEDF91CF91089530919B01F9
:1009A000E091B701F091B801332311F0249101C017
:1009B0002081822F81548A3108F4205E203259F43C
:1009C0008091B7019091B80101969093B8018093FE
:1009D000B701019729F7822F0895CF93DF93DEDFC8
:1009E000282FC0E0D0E01CC0CE0153E0880F991F33
:1009F0005A95E1F7CC0FDD1FC80FD91F822F992719
:100A000087FD9095C80FD91FE0978091B70190910D
:100A1000B80101969093B8018093B701BFDF282FEA
:100A2000822F80538A3000F3CE01DF91CF91089559
:100A3000A0E0B0E0EEE1F5E00C94C41180907D01FF
:100A4000B0909901BB2021F060919A01662399F43E
:100A5000A0909A010091820110918301E0907E01A3
:100A6000F0907F01C0918001D0918101C0908401FC
:100A7000D090850103C18FEF70E040E018DF109245
:100A80009A01C0C194E0892EBB2404EF11E084E0F8
:100A9000E82EF12CC0EDD7E0B4E09B2EAFE0CA2EDB
:100AA000D12C7CDF282F8091B7019091B80101965D
:100AB0009093B8018093B701263609F498C0273681
:100AC000CCF42236A1F1233674F42E3361F12F33A6
:100AD00034F42132B9F22C3309F006C126C0213694
:100AE00009F002C11CC1243609F451C025360CF0AE
:100AF00066C035C02F3609F4BFC0203754F42C36F9
:100B000009F4A5C02D3609F4A5C0273609F0ECC0BC
:100B100086C0243709F4CEC0263709F4E2C0223754
:100B200009F0E2C0ADC08394BCCF8A94BACFA09242
:100B30009A01B09299011093830100938201F0927F
:100B40007F01E0927E01D0938101C0938001909259
:100B50007D01D0928501C09284012BE0F7C0A09264
:100B60009A01B09299011093830100938201F0924F
:100B70007F01E0927E01D0938101C0938001909229
:100B80007D01D0928501C092840120E0DFC0A09257
:100B90009A01B09299011093830100938201F0921F
:100BA0007F01E0927E01D0938101C09380019092F9
:100BB0007D01D0928501C092840122E0C7C0A0923D
:100BC0009A01B09299011093830100938201F092EF
:100BD0007F01E0927E01D0938101C09380019092C9
:100BE0007D01D0928501C092840124E0AFC0A09223
:100BF0009A01B09299011093830100938201F092BF
:100C00007F01E0927E01D0938101C0938001909298
:100C10007D01D0928501C092840125E097C0A09209
:100C20009A01B09299011093830100938201F0928E
:100C30007F01E0927E01D0938101C0938001909268
:100C40007D01D0928501C092840127E07FC0C5DE7E
:100C50007C0141C0A3DE8C3611F4BB2403C0AA245E
:100C6000BB24B3948091B7019091B8010196909301
:100C7000B8018093B70115CFB0DE882E982C11CF24
:100C8000A0929A01B092990110938301009382017E
:100C9000F0927F01E0927E01D0938101C0938001A8
:100CA00090927D01D0928501C092840120E0FF24C2
:100CB000F3944DC092DEBC0180EC9DE50E946D1165
:100CC000CB01EB01F3E0CC0FDD1FFA95E1F7880FC4
:100CD000991FC80FD91FCE01B7010E946D118B015A
:100CE000E0CE7BDE6C01DDCEA0929A01B09299013C
:100CF0001093830100938201F0927F01E0927E01C4
:100D0000D0938101C093800190927D01D0928501A2
:100D1000C09284011092B8011092B70173C0A092E2
:100D20009A01B09299011093830100938201F0928D
:100D30007F01E0927E01D0938101C0938001909267
:100D40007D01D0928501C092840129E0FF248CE0CE
:100D5000889EC0011124E22EE80E0AC08091B701DE
:100D60009091B80101969093B8018093B701E394F4
:100D700015DE8B3299F3833289F30BC08091B70172
:100D80009091B80101969093B8018093B701EA94CD
:100D900005DE8D3299F3C0918201D0918301815398
:100DA000883050F4009180011091810116DEBC0161
:100DB000C8010E946D11EB018E010BC08091B7013B
:100DC0009091B80101969093B8018093B701C00F3C
:100DD000D11F16950795E2DD8E3281F3809199013E
:100DE000882339F0CE019695879580939A01C81B88
:100DF000D109FF2011F0EE24EA948E2DBE0140911E
:100E0000840155DDCDB7DEB7ECE00C94E011109213
:100E10006F009093B8018093B70110929B011092DC
:100E20009A0106CEF4CF08951F920F920FB60F923B
:100E300011242F933F934F935F936F937F938F93DF
:100E40009F93AF93BF93EF93FF9380919D019091F8
:100E50009E01019790939E0180939D01019609F553
:100E600010926F00789480918100887F81608093D8
:100E7000810080E197E2909389008093880010922E
:100E80008B0010928A0081E0809388018091B701E5
:100E90009091B801892B29F080919C01882309F455
:100EA000C7DDFF91EF91BF91AF919F918F917F919E
:100EB0006F915F914F913F912F910F900FBE0F90C7
:100EC0001F901895EF92FF920F931F936AB1579856
:100ED0005A98289AE090A301F090A4010091A501EE
:100EE0001091A60120E030E041E050E0CA016F938C
:100EF00064E06A95F1F76F910197C9F75C9ACA01AE
:100F00006F9364E06A95F1F76F910197C9F789B122
:100F10005C98FA016F9364E06A95F1F76F913197ED
:100F2000C9F75C9AFA016F9364E06A95F1F76F91E3
:100F30003197C9F75C9887FF0BC02C5F3F4FC90101
:100F4000A0E0B0E08E159F05A007B10708F4CECF52
:100F50006AB91F910F91FF90EF90089565B190E0ED
:100F6000AC0141705070440F551F9C0126703070C9
:100F700053E0220F331F5A95E1F7422B6D7C462B2D
:100F800045B92BB18870907034E0880F991F3A955D
:100F9000E1F72F77282B2BB95C9A81E090E0FC01D8
:100FA0006F9364E06A95F1F76F913197C9F75C9898
:100FB0006F9364E06A95F1F76F910197C9F708950F
:100FC00080E197E2A0E0B0E08093A3019093A401B8
:100FD000A093A501B093A601529A209A549A8EE14B
:100FE00090E09BD383E0BFD086E090E096D383E08F
:100FF000BAD082E090E091D383E0B5D082E090E077
:101000008CD382E0B0D082E090E087D388E241D0F8
:1010100088E03FD081E03DD086E03BD08CE039C015
:101020008091A701882321F481E08093A701C8CF94
:101030000895BF92CF92DF92EF92FF920F931F938A
:10104000082F162FF42EECDF3DDFB4B0C5B0DAB0B8
:10105000EBB02898112311F05A9A01C05A9884B124
:10106000826384B9579A81E0F81621F0802F829527
:101070008F7074DF802F8F7071DFDAB8EBB8B4B87F
:10108000C5B81F910F91FF90EF90DF90CF90BF9068
:10109000089560E042E0CDCF81E0FBDF80919F01C9
:1010A0009091A001892B19F160E070E208C0E091F5
:1010B0009F01F091A001E40FF51F70836F5F462F31
:1010C00050E08091860190E001972091870130E007
:1010D000FC01E29FC001E39F900DF29F900D11244F
:1010E0004817590724F31092A2011092A101089504
:1010F000D3CF089561E042E09CCFCF93DF93EC0122
:1011000002C02196F7DF88818823D9F7DF91CF913C
:101110000895F3CF0895EECF0895EF92FF920F93C5
:101120001F93CF93DF937C01062F10E0F3E0000FB5
:10113000111FFA95E1F7C0E0D0E09E01200F822F49
:101140008064A7DFF701EC0FFD1FE4918E2FD2DF43
:101150002196C830D10589F7CDB7DEB7E6E00C940B
:10116000E611DBCF089560E041E063CF282F88309F
:1011700068F481E090E002C0880F991F2A95E2F799
:10118000282FAAE2B0E0EBE2F0E029C08E3080F434
:1011900030E02850304081E090E002C0880F991F75
:1011A0002A95E2F7282FA4E2B0E0E5E2F0E017C0CC
:1011B000853130F020E0A0E0B0E0E0E0F0E00FC0EA
:1011C00030E02E50304081E090E002C0880F991F3F
:1011D0002A95E2F7282FA7E2B0E0E8E2F0E06F3FBF
:1011E00019F48081822709C0662319F08081822B3F
:1011F00004C09081822F8095892380838C91822BDB
:101200008C930895E0EBF0E083EF8083808184BDD0
:10121000E1EBF0E082E08083808185BDE4EBF0E0EB
:1012200010828081E3EBF0E08083808188BD88B507
:1012300087BD86E060E09ADF85E060E097DF8BE0C5
:1012400060E094DF83E060E091CF8091A801882383
:1012500021F481E08093A801D5CF0895CF93DF9347
:10126000EC01F3DFD7FD02C020E004C0D095C195AA
:10127000DF4F21E0CE01CF3FD10519F014F08FEF01
:1012800090E0222319F018BC87BD02C088BD17BCAE
:10129000DF91CF910895CF93DF93EC01D6DFD7FD97
:1012A00002C020E004C0D095C195DF4F21E0CE01FF
:1012B000CF3FD10519F014F08FEF90E0222329F0F1
:1012C0001092B4008093B30004C08093B4001092D5
:1012D000B300DF91CF9108950F931F938B01BEDF71
:1012E000C801D9DF1F910F910895F6CF0895282FD7
:1012F0008091A901882391F481E08093A90184B1B0
:101300008D7C84B985B1826385B985E090E06F9367
:1013100064E06A95F1F76F910197C9F783B1809501
:10132000822308951F93CF93DF93182F8091A901F3
:10133000882391F481E08093A90184B18D7C84B9E4
:1013400085B1826385B985E090E06F9364E06A952A
:10135000F1F76F910197C9F7C12FD0E083B190E009
:101360008C239D23892BD1F38AE090E0D6D183B1E1
:1013700090E08C239D23892B89F383B18123DF9116
:10138000CF911F910895CECF08952091C1002F775E
:101390002093C1009093C2018093C1011092BB01C0
:1013A0006093BD0181E08093BE018091B9018823E3
:1013B00029F48091C10080688093C10008958091D4
:1013C000BB0108952091B901222311F488E901C0DD
:1013D00088E18093C1008091BF019091C001892B69
:1013E00079F09091BA018091BC01981748F42223BA
:1013F00039F48091C10080628093C100789408958F
:101400008091C1008F7DF8CFEF92FF920F931F93D1
:101410007B018C0180E0D6DF60EA75E286E290E035
:101420006E197F09800B910B33E0660F771F881FC1
:10143000991F3A95D1F724E0EE0CFF1C001F111FF5
:101440002A95D1F7A80197015CD73093C500209366
:10145000C4001F910F91FF90EF900895D5CF08958C
:101460008091C1008F7D8093C100E091BF01F09118
:10147000C001309709F45DC08091BA019091BC0120
:10148000891708F05AC08091C00085FF56C080912E
:10149000BA01E80FF11D80818093C6008091BA01E6
:1014A0008F5F8093BA0149C08091B901882309F008
:1014B00040C08091C10080628093C1008091C100D2
:1014C0008F778093C100E091C101F091C201309704
:1014D00031F18091BB019091BD01891700F5809198
:1014E000C00087FF1CC02091C6008091BB018917F6
:1014F00050F48091BB01E80FF11D20838091BB0166
:101500008F5F8093BB019091BB018091BD019817C3
:1015100031F48091BE01882311F01092BB018091BB
:10152000B901882379F48091C10080688093C1005B
:1015300008958091C1008F7DBFCF8091BA01891736
:10154000C0F7B2CF08958CCF08959093C0018093D7
:10155000BF011092BA016093BC01892BA1F0809168
:10156000BA01861780F48091B901882361F48091D3
:10157000C10080620BC074DF9091BA018091BC0100
:101580009817C9F708958091C1008F7D8093C1009D
:10159000F3CFDBCF08951F920F920FB60F92112455
:1015A0002F938F939F93EF93FF932091C600E09129
:1015B000C101F091C201309781F09091BB018091FF
:1015C000BD01981750F48091BB01E80FF11D2083F5
:1015D0008091BB018F5F8093BB019091BB01809193
:1015E000BD01981731F48091BE01882311F010924B
:1015F000BB01FF91EF919F918F912F910F900FBEA3
:101600000F901F9018951F920F920FB60F921124F2
:101610008F939F93EF93FF93E091BF01F091C001EF
:101620003097F9F08091BA019091BC01891738F593
:101630008091C00085FF23C08091BA01E80FF11DA1
:1016400080818093C6008091BA018F5F8093BA0138
:1016500016C08091B901882321F48091C100806275
:1016600003C08091C1008F7D8093C100FF91EF91F5
:101670009F918F910F900FBE0F901F9018958091A2
:10168000BA01891770F7E5CF2F928F939F932FB6EA
:101690008091C4019091C50101968093C4019093FB
:1016A000C50190E08091C601891F8093C601909189
:1016B000CC019C5F9093CC018091CB0180519742EB
:1016C000C0F09093CC018093CB018091C7019091A1
:1016D000C80101968093C7019093C80190E0809162
:1016E000C901891F8093C9018091CA01891F809314
:1016F000CA012FBE9F918F912F90189528EE33E04D
:1017000009C0F9016F9364E06A95F1F76F91319721
:10171000C9F701970097A9F7089528EE33E009C0AB
:10172000F9016F9364E06A95F1F76F913197C9F70A
:1017300001970097A9F70895A0E7B0E08C918E7FFC
:101740008C93E0EBF0E0808183608083E1EBF0E05C
:101750008081807F8083808182608083B89A8C9131
:1017600081608C93789408958091CD01882321F431
:1017700081E08093CD01E0CF0895F6DFE0E7F0E06F
:1017800080818E7F80831092C7011092C8011092D1
:10179000C9011092CA011092CC011092CB01808134
:1017A00081608083089508958EEC91E034C49C019B
:1017B000462F8EEC91E0B90120E0A1C3682F8EEC9A
:1017C00091E040C50F93DF93CF9300D000D00F92EC
:1017D000CDB7DEB79C01962FDE011196E9E8F1E066
:1017E00085E001900D928150E1F7BE016F5F7F4F60
:1017F000992329F08EEC91E045E00FEF04C08EECC8
:1018000091E045E003E174D08EEC91E059D0B5DF72
:101810000F900F900F900F900F90CF91DF910F913D
:10182000089560E0CFCFFC011182108213821282F2
:101830001582148217821682613118F080E1808748
:1018400001C06087208B483060F481E090E002C0E6
:10185000880F991F4A95E2F74AE250E02BE230E008
:1018600029C04E3080F4242F30E02850304081E0F1
:1018700090E002C0880F991F2A95E2F744E250E0F9
:1018800025E230E017C0453130F080E040E050E024
:1018900020E030E00FC0242F30E02E50304081E0B7
:1018A00090E002C0880F991F2A95E2F747E250E0C6
:1018B00028E230E08187338722875587448708955F
:1018C000DC011C96ED91FC911D97309781F0808191
:1018D00019969C911997892B80831A96ED91FC910A
:1018E0001B97908119968C91809589238083089508
:1018F000A0E0B0E0EDE7FCE049C5EC015B01642F3E
:101900007901402F20E08FDFCE018F5B9F4FFC01DC
:101910001082DE01AE5BBF4F1C92FE01ED5BFF4FFC
:101920001082FF86EE8640E061E070E06F017D018D
:101930008C014EC0F501E40FF11D8081883050F418
:101940009B0102C0220F331F8A95E2F7922F29E2F2
:1019500030E01FC08E3060F490E00897FB0102C0B9
:10196000EE0FFF1F8A95E2F79E2F23E230E011C0B1
:10197000853120F090E020E030E00BC090E00E9741
:101980009B0102C0220F331F8A95E2F7922F26E2B5
:1019900030E0E42FF0E0DE01AE0FBF1F51969C93C4
:1019A000EE0FFF1FEC0FFD1F32A321A323323105E1
:1019B00011F4F80109C02632310511F4F70104C011
:1019C0002932310521F4F6018081982B90834F5FF5
:1019D0008885481708F4AECFCDB7DEB7EAE0F2C489
:1019E000A0E0B0E0E5EFFCE0CFC4EC015B01CF5B31
:1019F000DF4F4991A9918880C354D04090E009C03D
:101A0000E92FF0E0EE0FFF1FEA0DFB1D118210829F
:101A10009F5F88859817A0F384B1CF5BDF4F399122
:101A2000832B84B987B12991822B87B98AB1988198
:101A3000C354D040892B8AB985B1832B85B988B12D
:101A4000822B88B98BB1892B8BB9EAE0F0E06F93D8
:101A500064E06A95F1F76F913197C9F784B13095D9
:101A6000832384B987B12095822387B98AB1909561
:101A700089238AB985B1382335B988B1282328B993
:101A80008BB198239BB99090B000C090B100809129
:101A9000B00083608093B00082E08093B100D0906A
:101AA000B20060E070E03AC05091B2005D19650F7D
:101AB000711DE3B0E41609F04FC0F6B0FA1609F054
:101AC0004BC089B1881509F047C025C0A42FB0E0EC
:101AD0009D01220F331F8501020F131FF801808122
:101AE0009181892BA1F42C0F3D1FF90181A192A1B5
:101AF000FC01208130E0AC0FBD1F51968C9190E02D
:101B000028233923232B19F4F801718360834F5F55
:101B100088854817D8F2D50E4E2DAF2D8E859F851E
:101B20006817790708F29092B000C092B10020E0E7
:101B30000FC0E22FF0E0EE0FFF1FEA0DFB1D8081CA
:101B40009181892B21F48E859F85918380832F5FDE
:101B50008885281770F305C0E3B0F6B089B040E07F
:101B6000D7CFCDB7DEB7ECE02BC4A0E0B0E0EAEB16
:101B7000FDE00EC4EC018B01D0907C00E0907A0077
:101B8000C7B0F8B080917A0086FDFCCF90E009C024
:101B9000E92FF0E0EE0FFF1FE00FF11F118210821E
:101BA0009F5F88859817A0F397B18AA180959823A5
:101BB00097B998B1892388B987E880937A0050E073
:101BC00025C0FE01E40FF11D8189806480937C00B3
:101BD00080917A00806480937A0080917A0086FDFB
:101BE000FCCFE42FF0E0EE0FFF1FE00FF11F20917C
:101BF00078003091790080819181820F931F9183C9
:101C000080834F5F88854817E0F25F5F89A158178E
:101C100010F040E016C040E0F5CFE42FF0E0EE0F0A
:101C2000FF1FE00FF11F69A1862F90E09595879522
:101C300020813181820F931F70E04FD371836083C5
:101C40004F5F8885481748F3D0927C00E0927A0075
:101C5000F8B8C7B8CDB7DEB7E8E0B6C3A0E2B0E0E9
:101C6000E3E3FEE094C38C017B01D42E842F8150EA
:101C70008230B0F4D8011C96ED91FC911D973097FD
:101C800079F0808119969C911997892B80831A96F7
:101C9000ED91FC911B97808119969C91892B8083F3
:101CA000F8018089882339F5C02EB12EC801B7010B
:101CB00097DED8011C96ED91FC911D97309781F02D
:101CC000808119969C911997892B80831A96ED91A2
:101CD000FC911B97908119968C9180958923808324
:101CE000B2E0DB1609F050C08C2D9B2DBE016F5F5A
:101CF0007F4F76DE25C0C02EB12EC801B70135DF7B
:101D0000D8011C96ED91FC911D97309781F0808150
:101D100019969C911997892B80831A96ED91FC91C5
:101D20001B97908119968C91809589238083B2E0CE
:101D3000DB1651F58C2D9B2DBE016F5F7F4F15DF9C
:101D400040E0BE016F5F7F4F1AC0E42FF0E0EE0F5E
:101D5000FF1F6701CE0EDF1EE60FF71FD8011E968C
:101D60002D913C911F9780819181281B390BF601A1
:101D700080819181820F931F918380834F5FD8016F
:101D800018968C91481708F3A096E9E01CC3A0E0D0
:101D9000B0E0ECECFEE0F9C2EC01162F072F942E18
:101DA00022E0421711F0442351F48C819D81892B4C
:101DB00009F4A1C08E819F81892B09F49CC0892DD3
:101DC0008150823050F488819981892B09F493C025
:101DD0008A819B81892B09F48EC0CE01612F702FDF
:101DE000492D3CDF812F902F9C015901CC24DD240B
:101DF00000E010E07AC081E0981669F4EA81FB8186
:101E0000E00FF11F20813181E881F981E00FF11F9E
:101E1000408151813DC0AC81BD81992059F4EE8152
:101E2000FF81E00FF11F20813181A00FB11F4D9183
:101E30005C912EC0A00FB11F8D919C91E881F9811A
:101E4000E00FF11F20813181EE85FF858217930716
:101E500010F4AF0105C0A9014E0F5F1F481B590BBD
:101E6000EE81FF81E00FF11F60817181EA81FB81CA
:101E7000E00FF11F80819181EE85FF85681779075A
:101E800010F49F0105C09C012E0F3F1F261B370B2E
:101E90007901E41AF50AF1F0F5016081718180E0C1
:101EA00090E09A0140E050E0621B730B840B950BAD
:101EB00028EE33E040E050E0E5D1970140E050E00B
:101EC00042D2C901F3E0293E3F0714F088EE93E0C7
:101ED00097FF02C080E090E0F501819391935F014C
:101EE0000894C11CD11C0E5F1F4F888590E0C81656
:101EF000D9060CF480CFCDB7DEB7EBE062C2A4E028
:101F0000B0E0E4E8FFE03AC28C01F62EE72E2A8327
:101F10003EDFD8011896BC91B9832F2D3E2DC90103
:101F20008C01552444246624772443011C821B829F
:101F3000AA24BB246501B8EE2B2EB3E03B2E31C0A2
:101F4000F801E080F180FA81FF2321F091012E1940
:101F50003F09790139ECE316F10414F04424439469
:101F600083E3E816F10494F0B701882777FD8095A4
:101F7000982FA601950186D1660E771E881E991EA0
:101F8000AB81BC81AE0DBF1DBC83AB83539488EE87
:101F900093E0A0E0B0E0A80EB91ECA1EDB1E0E5FE3
:101FA0001F4F9981591660F2442021F5692F70E086
:101FB00084EF91E0DC016A9FC0016B9F900D7A9FD6
:101FC000900D1124845F91402091120230911302F0
:101FD000281739071CF440E050E019C088EE93E060
:101FE000689FA001699F500D789F500D1124485E95
:101FF00053400DC0EB81FC819F0140E050E0C401E3
:10200000B3017FD1A9013093130220931202CA01B8
:102010002496E2E1CFC1CF93DF93EC018A819B81CB
:10202000009709F082D28E819F81009709F07DD2BE
:1020300088819981009709F078D28C819D810097E1
:1020400009F073D2DF91CF910895A3E6B0E0EAE200
:10205000F0E194C17C015B016A01A2962FAFA297C7
:10206000DA018D919C91892B09F5F701808590E02B
:10207000880F991FC0D1D6018D939C93009709F4C6
:10208000DDC020E030E00CC0C901880F991FD601E7
:10209000ED91FC91E80FF91F118210822F5F3F4FE5
:1020A000F701808590E02817390774F3D5018D91E9
:1020B0009C91892B89F000E010E03E010894611C9E
:1020C000711C41E4242E312C2C0E3D1E31E2432E96
:1020D000512C4C0E5D1E27C0F701808590E0880FC3
:1020E000991F89D1D5018D939C93009709F4A6C0BF
:1020F00020E030E011C0C901880F991FD501ED9192
:10210000FC91E80FF91FD7011E968D919C911F97A6
:10211000918380832F5F3F4FF701808590E02817E0
:1021200039074CF3C8CFC701B301A2964FADA297B0
:1021300095DDD70118968C91882E9924A101F30181
:10214000A4965FAE4EAEA49760E070E034C0011577
:10215000110559F0A496AEADBFADA4972D913C9159
:10216000808191812817390758F480819181A49644
:10217000AEADBFADA4978D939C930115110541F0B1
:10218000DA012D913C91808191818217930728F487
:1021900080819181DA018D939C936F5F7F4F4E5FB9
:1021A0005F4F3296A4968EAD9FADA4970296A496EB
:1021B0009FAF8EAFA497681579054CF20F5F1F4F44
:1021C0000A30110509F0AFCF40E050E020E030E0E8
:1021D0008E010F5B1F4FBE016F5D7F4F28C0F8015E
:1021E000E20FF31F80809180F601A081B181A20FE0
:1021F000B31F8D919C9111978815990510F48D92BC
:102200009C92FB01E20FF31F80809180F501A08179
:10221000B181A20FB31F8D919C91119788169906D9
:1022200010F48D929C924F5F5F4F2E5F3F4FD7010E
:1022300018968C9190E0481759078CF2CD59DF4FD2
:10224000E2E1B8C01F93CF93DF93EC01162F862FE6
:102250008150823038F4AE014E5F5F4FCE01BE0137
:1022600021E0F3DE123011F0112341F4AE014A5F98
:102270005F4FCE012496BE0120E0E7DEDF91CF91D3
:102280001F910895629FD001739FF001829FE00D1E
:10229000F11D649FE00DF11D929FF00D839FF00DE5
:1022A000749FF00D659FF00D9927729FB00DE11D91
:1022B000F91F639FB00DE11DF91FBD01CF0111246E
:1022C0000895991B79E004C0991F961708F0961B92
:1022D000881F7A95C9F780950895AA1BBB1B51E109
:1022E00007C0AA1FBB1FA617B70710F0A61BB70B86
:1022F000881F991F5A95A9F780959095BC01CD012B
:102300000895A1E21A2EAA1BBB1BFD010DC0AA1F36
:10231000BB1FEE1FFF1FA217B307E407F50720F04E
:10232000A21BB30BE40BF50B661F771F881F991FC9
:102330001A9469F760957095809590959B01AC0112
:10234000BD01CF01089597FB092E05260ED057FD3C
:1023500004D0D7DF0AD0001C38F450954095309552
:1023600021953F4F4F4F5F4F0895F6F79095809519
:10237000709561957F4F8F4F9F4F08952F923F9299
:102380004F925F926F927F928F929F92AF92BF9285
:10239000CF92DF92EF92FF920F931F93CF93DF9331
:1023A000CDB7DEB7CA1BDB0B0FB6F894DEBF0FBE8E
:1023B000CDBF09942A88398848885F846E847D84DB
:1023C0008C849B84AA84B984C884DF80EE80FD80DD
:1023D0000C811B81AA81B981CE0FD11D0FB6F89453
:1023E000DEBF0FBECDBFED010895EE0FFF1F0590BC
:1023F000F491E02D0994CF93DF938230910510F48E
:1024000082E090E0E0917905F0917A0540E050E0BB
:1024100020E030E026C06081718168177907E0F024
:102420006817790781F4828193812115310531F094
:10243000D90113969C938E9312972BC090937A0593
:102440008093790526C04115510519F06417750769
:1024500018F4AB01E901DF019F0172816381E72F6D
:10246000F62F3097C1F64115510501F1481B590B64
:102470004430510580F412968D919C9113972097CA
:1024800019F09B838A8304C090937A058093790521
:10249000FD01329646C0FD01E40FF51F8193919333
:1024A0004250504011965C934E933BC0209177056B
:1024B000309178052115310541F42091900130913A
:1024C0009101309378052093770520919201309106
:1024D00093012115310541F42DB73EB740918E018E
:1024E00050918F01241B350BE0917705F091780511
:1024F000E217F307A0F42E1B3F0B2817390778F0DB
:10250000AC014E5F5F4F2417350748F04E0F5F1F39
:1025100050937805409377058193919302C0E0E052
:10252000F0E0CF01DF91CF910895CF93DF93009733
:1025300009F491C0FC0132971382128260917905EF
:1025400070917A056115710581F420813181280F20
:10255000391F80917705909178058217930799F537
:10256000F0937805E093770576C0DB0180E090E09A
:1025700002C0CD01D901AE17BF0748F412962D91C4
:102580003C91139721153105A1F7CD0121C0B383EB
:10259000A283EF01499159919E01240F351FA21783
:1025A000B30779F42D913C911197240F351F2E5FBD
:1025B0003F4F3183208312962D913C9113973383A3
:1025C0002283009729F4F0937A05E093790543C0BC
:1025D000DC011396FC93EE9312974D915D91A40F3D
:1025E000B51FEA17FB0769F420813181240F351FDD
:1025F0002E5F3F4FEC0139832883228133813B8357
:102600002A83E0E0F0E002C0FB01BC01DB0112968E
:102610008D919C9113970097B9F79B012E5F3F4FC7
:102620008D919C911197820F931F40917705509146
:1026300078054817590779F4309729F410927A05EC
:102640001092790502C013821282225030403093DA
:10265000780520937705DF91CF910895FB01DC0188
:102660000D900020E9F7119701900D920020E1F7FD
:102670000895FB01DC018D91019080190110D9F3BF
:10268000990B089510E0C0E9D0E003C0FE01AFDE71
:0C2690002296C239D107D1F7F894FFCF91
:10269C0054455854004D5553494300474F535452D9
:1026AC00414947485400474F2053545241494748E9
:1026BC0054005455524E4C454654005455524E20DD
:1026CC004C454654005455524E52494748540054B8
:1026DC0055524E205249474854003B0041434B0051
:1026EC002E004D617A65206578706C6F7265720092
:1026FC00507265737320420052656164792E2E2EE0
:10270C0000F204200000010203040506FF0404008B
:10271C00D007F4010F000208010E0F101112200057
:04272C007B05000029
:00000001FF
